:1000000020230020051F0000477F0000F11E000094
:10001000F11E0000F11E0000F11E000000000000B3
:100020000000000000000000000000000D1D0000A6
:10003000F11E000000000000B91C0000F11E0000CD
:10004000711C0000711C0000711C0000711C00007C
:10005000711C0000711C0000711C0000711C00006C
:10006000711C0000711C0000711C0000711C00005C
:10007000711C0000711C0000711C0000711C00004C
:10008000711C0000711C0000711C0000711C00003C
:10009000711C0000711C0000711C0000711C00002C
:1000A000711C0000711C0000711C0000711C00001C
:1000B000711C0000711C0000711C0000711C00000C
:1000C000711C0000711C0000711C0000711C0000FC
:1000D000711C0000711C0000711C0000711C0000EC
:1000E000711C0000711C0000711C0000711C0000DC
:1000F000711C0000711C0000711C0000711C0000CC
:100100004FF0FF0C1CEAD0521EBF1CEAD15392EAFA
:100110000C0F93EA0C0F6FD01A4480EA010C4002D6
:1001200018BF5FEA41211ED04FF0006343EA501030
:1001300043EA5111A0FB01310CF00040B1F5000F72
:100140003EBF490041EAD3715B0040EA010062F121
:100150007F02FD2A1DD8B3F1004F40EBC25008BF0B
:1001600020F00100704790F0000F0CF0004C08BF29
:1001700049024CEA502040EA51207F3AC2BFD2F1F6
:10018000FF0340EAC250704740F400004FF0000304
:10019000013A5DDC12F1190FDCBF00F0004070473E
:1001A000C2F10002410021FA02F1C2F1200200FA7C
:1001B00002FC5FEA310040F1000053EA4C0308BF43
:1001C00020EADC70704792F0000F00F0004C02BF94
:1001D000400010F4000F013AF9D040EA0C0093F00F
:1001E000000F01F0004C02BF490011F4000F013B69
:1001F000F9D041EA0C018FE70CEAD15392EA0C0FD7
:1002000018BF93EA0C0F0AD030F0004C18BF31F041
:10021000004CD8D180EA010000F00040704790F017
:10022000000F17BF90F0004F084691F0000F91F0BB
:10023000004F14D092EA0C0F01D142020FD193EA81
:100240000C0F03D14B0218BF084608D180EA010009
:1002500000F0004040F0FE4040F40000704740F0E5
:10026000FE4040F44000704780F0004002E000BFD4
:1002700081F0004142001FBF5FEA410392EA030F91
:100280007FEA226C7FEA236C6AD04FEA1262D2EBDB
:100290001363C1BFD218414048404140B8BF5B42E0
:1002A000192B88BF704710F0004F40F4000020F079
:1002B0007F4018BF404211F0004F41F4000121F08F
:1002C0007F4118BF494292EA030F3FD0A2F10102D9
:1002D00041FA03FC10EB0C00C3F1200301FA03F117
:1002E00000F0004302D5494260EB4000B0F5000F3A
:1002F00013D3B0F1807F06D340084FEA310102F1F9
:100300000102FE2A51D2B1F1004F40EBC25008BFAA
:1003100020F0010040EA03007047490040EB000074
:10032000013A28BFB0F5000FEDD2B0FA80FCACF175
:10033000080CB2EB0C0200FA0CF0AABF00EBC250A2
:1003400052421843BCBFD0401843704792F0000F90
:1003500081F4000106BF80F400000132013BB5E7E3
:100360004FEA41037FEA226C18BF7FEA236C21D059
:1003700092EA030F04D092F0000F08BF08467047BE
:1003800090EA010F1CBF0020704712F07F4F04D18C
:10039000400028BF40F00040704712F100723CBF9F
:1003A00000F50000704700F0004343F0FE4040F4C9
:1003B000000070477FEA226216BF08467FEA236387
:1003C0000146420206BF5FEA412390EA010F40F472
:1003D000800070474FF0000304E000BF10F00043BE
:1003E00048BF40425FEA000C08BF704743F09643A5
:1003F00001464FF000001CE050EA010208BF7047C0
:100400004FF000030AE000BF50EA010208BF704746
:1004100011F0004302D5404261EB41015FEA010C5B
:1004200002BF84460146002043F0B64308BFA3F153
:100430008053A3F50003BCFA8CF2083AA3EBC25335
:1004400010DB01FA02FC634400FA02FCC2F1200254
:10045000BCF1004F20FA02F243EB020008BF20F08B
:100460000100704702F1200201FA02FCC2F12002F1
:1004700050EA4C0021FA02F243EB020008BF20EAE6
:10048000DC70704742000ED2B2F1FE4F0BD34FF03A
:100490009E03B3EB126209D44FEA002343F00043FA
:1004A00023FA02F070474FF00000704712F1610F1D
:1004B00001D1420202D14FF0FF3070474FF00000EF
:1004C000704700BF53B94AB9002908BF00281CBFB4
:1004D0004FF0FF314FF0FF3000F06CB9ADF1080C78
:1004E0006DE904CE00F006F8DDF804E0DDE9022352
:1004F00004B070472DE9F047089E0D4604468E462D
:10050000002B40F082808A42174646D9B2FA82F226
:100510004AB1C2F1200105FA02F320FA01F1974035
:1005200041EA030E94404FEA1748230CBEFBF8FC47
:10053000B9B208FB1CEE43EA0E430CFB01F09842F3
:100540000AD9FB180CF1FF3580F01681984240F271
:100550001381ACF1020C3B441B1AA4B2B3FBF8F0BC
:1005600008FB103344EA034400FB01F1A14209D91E
:100570003C1900F1FF3380F00181A14240F2FE807E
:1005800002383C44641A40EA0C4000211EB1D440B9
:100590000023C6E90043BDE8F08702B9FFDEB2FAE6
:1005A00082F2002A4FD1CB1B4FEA174E1FFA87F871
:1005B0000121B3FBFEFC250C0EFB1C3345EA034571
:1005C00008FB0CF3AB4207D97D190CF1FF3002D2C6
:1005D000AB4200F2E7808446ED1AA3B2B5FBFEF011
:1005E0000EFB105543EA054408FB00F8A04507D967
:1005F0003C1900F1FF3302D2A04500F2D780184623
:10060000A4EB080440EA0C40C0E78B4208D9002E56
:1006100000F0AF800021C6E900050846BDE8F0877C
:10062000B3FA83F100294BD1AB4202D3824200F2EC
:10063000B780841A65EB030301209E46002EAAD0E2
:10064000C6E9004EA7E7C2F1200C01FA02F3974079
:1006500020FA0CF04FEA174E21FA0CFC1843BCFBB1
:10066000FEF1050C0EFB11CC1FFA87F845EA0C458C
:1006700001FB08F3AB4204FA02F409D97D1901F138
:10068000FF3C80F08B80AB4240F2888002393D44D1
:10069000EB1A85B2B3FBFEF00EFB103345EA0345BF
:1006A00000FB08F3AB4207D97D1900F1FF3C71D282
:1006B000AB426FD902383D44EB1A40EA014178E77A
:1006C000C1F1200C8B4022FA0CF71F4320FA0CF4E6
:1006D00005FA01F34FEA174E25FA0CF51C43230CDB
:1006E000B5FBFEF91FFA87F80EFB195543EA0545DD
:1006F00009FB08FAAA4502FA01F200FA01F308D947
:100700007D1909F1FF3047D2AA4545D9A9F102095F
:100710003D44A5EB0A05A4B2B5FBFEF00EFB105557
:1007200044EA054400FB08F8A04507D93C1900F14C
:10073000FF352DD2A0452BD902383C4440EA094070
:10074000A4EB0804A0FB02894C45C6464D4619D3CC
:1007500016D05EB1B3EB0E0264EB050404FA0CFC98
:10076000CA404CEA0202CC40C6E900240021BDE8A0
:10077000F087314630460EE7AC46EDE6184601E715
:100780004345E6D2B8EB020E69EB07050138E0E716
:100790002846D3E760468FE78146BAE7614677E7A8
:1007A00008464BE7ACF1020C3D4415E702383C44E7
:1007B00026E700BF704700BF70B50A480A4E0B4DD0
:1007C0000B4C07F09AFB4FF0FF324FF0FF333046EF
:1007D00006F022F8284607F090FB204605F0D8FFE7
:1007E000F1E700BF64890000A40500209E89000095
:1007F000BC05002010B50648064C07F07EFB4FF004
:10080000FF324FF0FF33204606F006F8F7E700BF4F
:10081000A4890000BC0500202DE9F0473F4886B0C0
:10082000002607F06AFB07F021FE4FF47A730A46B0
:10083000A0FB030103FB0211C30B43EA4143CA0BB4
:1008400013F57A74364FDFF8F480DFF8F49042EB5A
:1008500006051422002101A807F0B0FB0223D8F8F6
:1008600000000493CDE902370A238DF81430A8BBA9
:100870002C4807F042FB4FF0FF3A2B48514607F057
:100880003CFB2A4B1E602A4805F082FF07F0EEFD74
:100890004FF47A730A46A0FB030103FB0211C20B5B
:1008A00042EA4142CB0BA24273EB0501D1DAA4EB41
:1008B000020C2CEAEC7C4FF4004E40F2E7300021B1
:1008C0004FF47A720023CEFB0C01FFF7FBFD05F01D
:1008D000F3FD14F57A7445F10005BAE7836801A9C0
:1008E0005B689847824680B10146124807F005FBD5
:1008F000C3E74FF47A705843FFF770FD4946FFF79E
:10090000FFFBFFF7BFFD06B2BBE73B88B3F5806F87
:10091000EFD3094807F0F1FAB3E700BFDE89000022
:10092000EC0C0020FC8900004B8A0000D40500205C
:10093000A40500202B8A0000748A0000A005002076
:100940000C30403B10B50B480B4C04F001F8206014
:1009500010B90A4807F0D1FA2068836808491B6873
:100960009847014610B1074807F0C7FA064B012225
:10097000DA6010BD8F8A0000A0050020958A000073
:100980005C890000B68A000000700040F0B589B0B4
:10099000FFF7D8FF012200211E4807F048FD012281
:1009A00000211D4807F043FD0026002700240125F3
:1009B000CDE90667CDE90354CDE90144174B184949
:1009C00000944FF48062174806F02EF8164B18601A
:1009D000164B17490094CDE90667CDE90354CDE9DC
:1009E00001444FF48062134806F01EF8124B186061
:1009F000124B13490094CDE90667CDE90354CDE9C4
:100A000001444FF480620F4806F00EF80E4B186058
:100A100009B0F0BDA4050020BC05002019080000A5
:100A2000C0120020D8020020DC050020B907000019
:100A3000E016002058020020D8050020F50700002D
:100A4000001B002058030020E00500202DE9F04F96
:100A500091B08B46029092461C4600259AF8000001
:100A600008B928465EE325280AF1010707D0029B52
:100A7000594698470028C0F25583013510E21822E4
:100A800000210AA807F09AFA9AF80130252B78D0AD
:100A900000229446164696461046394617F8013B02
:100AA0002B2B00F09D8000F29480202B00F09B8087
:100AB000232B00F09A8028B19DF8300040F004000C
:100AC0008DF83000BEF1000F05D09DF8300040F0E9
:100AD00008008DF830002EB19DF8300040F0100075
:100AE0008DF83000BCF1000F05D09DF8300040F0CB
:100AF00020008DF830002AB19DF8302042F04002ED
:100B00008DF830209DF8302002F04400442803D1B5
:100B10006FF386128DF830209DF830202A2B42F09A
:100B200080028DF830207BD19DF8312042F0010207
:100B30004B1C8DF831201A782E2A9DF831200CBFDD
:100B40000121002161F341028DF8312074D15A78DE
:100B50002A2A6AD0013300210A26184610F8012BF0
:100B6000A2F13007092F40F28E809DF830200E91BF
:100B7000C2F3400040EAD17161F341028DF83020A8
:100B80005AE00AF102078DF833309DF83130D90769
:100B900040F1498154F8049BB9F1000F07DA9DF840
:100BA000302042F004028DF83020C9F100095A07C4
:100BB00040F1428154F8048BB8F1000F80F241817A
:100BC0009DF831306FF341038DF831304FF0FF382D
:100BD00037E12D2B0CD0302B7FF46DAF01225CE779
:100BE0004FF0010E59E7012657E74FF0010C54E78B
:100BF000012052E70CFB0202303A33461E4616F83B
:100C0000010BA0F13007092FF4D9994293D09DF838
:100C100030100D92D20F62F341018DF830108AE747
:100C20000B4600224FF00A0CE8E79DF8312042F015
:100C300004028DF8312002331F4617F8012B6C2A6D
:100C400041D025D8682A2BD06A2A46D04C2A4CD0CD
:100C50001F4617F8012B9DF831308DF83320782A84
:100C600000F2D980572A4DD8412A03D0453A022AAA
:100C700000F2D1809DF83230042262F302038DF835
:100C8000323001239EE006FB01213039034664E740
:100C9000742A26D07A2ADBD19DF8313006220DE065
:100CA0005A78682A9DF8312006D1012161F3C602E5
:100CB0008DF831209F1CCCE71346022262F3C60355
:100CC0008DF83130C5E75A786C2A9DF8312001D172
:100CD0000421EBE713460322F0E79DF831300522AB
:100CE000ECE79DF831300722E8E7BDF8303023F417
:100CF000F04323F0020343F4804343F00203ADF8D2
:100D00003030A6E7A2F15801202900F2848001A02A
:100D100050F821F0D90D0000170E0000170E00004A
:100D2000170E0000170E0000170E0000170E00002F
:100D3000170E0000170E0000750C0000170E0000C3
:100D4000D90D0000990D0000750C0000750C000015
:100D5000750C0000170E0000990D0000170E000022
:100D6000170E0000170E0000170E0000E10D000026
:100D7000D90D0000FD0D0000170E0000170E000039
:100D8000FD0D0000170E0000D90D0000170E000029
:100D9000170E0000D90D00009DF83210012003F05D
:100DA000780360F30201402B8DF8321002BF9DF8EA
:100DB000301041F001018DF83010632A31D1003B31
:100DC00018BF01239DF83020C2F340010B4363F3A9
:100DD00041028DF83020D8E69DF832100220DEE77F
:100DE0009DF8322003F07803A3F14000032161F362
:100DF000020243428DF832204341E3E79DF832205E
:100E0000032113F0780F61F302028DF8322014BF32
:100E100001230023D6E79DF8303043F001038DF81D
:100E200030300023CEE79DF93020002AB4BFDDF832
:100E300034904FF0FF39BAE69B077FF5C7AEDDF877
:100E400038809DF831200023CDE90D339DF83230F4
:100E500003F00703012BC2F3C30236D1D31E042BC8
:100E600020D8DFE803F00307071F1F0054F8040B26
:100E7000C11704E0073424F00704F4E80201CDE9C7
:100E80000A019DF8303013F0030654D002983B4617
:100E90005246594606F0ACFF0028C0F24381054493
:100EA000BA46DBE554F8040B012A4FEAE071CDE9BC
:100EB0000A0105D19DF828300A9300230B93E0E73F
:100EC000022ADED1BDF92800D2E7022B23D1D31E9E
:100ED000042B13D8DFE803F0030A0A12120020687B
:100EE0000A900021231D0B911C46CAE7073424F009
:100EF0000703F3E80201CDE90A01F5E754F8043BE2
:100F00000A93012A4FF000030B93D3D0022AB8D1E1
:100F1000BDF82830D0E7042B07D1073424F00704AC
:100F2000F4E80201CDE90A01ABE7032B04BF54F852
:100F3000043B0A93A5E79DF833007828B0D86228CF
:100F400022D825283FF493AD5828A9D10DF12603C6
:100F50000093DDE90A0104AB0CAA06F0FEFE82460E
:100F6000B8F1000F0DF126000CDB9DF83020A0EB4E
:100F70000A036FF3861298458DF8302002D9A8EB4A
:100F800003030D9380463DE06338152888D801A1FE
:100F900051F820F01510000079100000A10E00009B
:100FA000A10E0000A10E0000A10E000079100000AB
:100FB000A10E0000A10E0000A10E0000A10E000075
:100FC000D7100000A5100000A9100000A10E00001D
:100FD000A10E0000ED0F0000A10E0000A510000002
:100FE000A10E0000A10E0000A5100000B8F1000F36
:100FF000DDF828A00ADB4146504606F0BFFF0AEBA9
:1010000000080026BAF1000F0CD149E7504606F05F
:10101000AEFFF4E70A9B8DF8103000260DF11108A1
:101020000DF1100AA8EB0A0306B101339DF8322036
:10103000D0066BD5023352060D9948BF0E9A0B4469
:1010400048BF9B18B9F1000F79DD9DF83020A9EB5E
:101050000309C2F380030393530770D4500664D589
:1010600046B1029B59463046984700285ADB039BFD
:1010700001351E46302359E01E0711D413F0100627
:1010800018BF2026DDE90A23002A73F10001BFF60C
:101090005DAF524263EB4303CDE90A232D2655E7AA
:1010A0002B26EFE7002651E70A9848B30DF12603F7
:1010B00000930CAA04AB002106F04FFEBDF83230BD
:1010C00003F0EF0343F4F04343F010038246ADF81E
:1010D0003230002644E70A9B072A3FF6E1AEDFE8FC
:1010E00002F00D04060D08080D0D1D70D8E61D80D8
:1010F000D6E62846E917C3E90001D1E61D60CFE630
:10110000DFF8C4800646A8F1050A8BE7110748BF3F
:10111000013390E7184603935946029B98470028ED
:10112000039B04DA11B0BDE8F08F20234D444A46FA
:10113000002AA5EB090109F1FF39EBDC0D4636B1B8
:10114000029B5946304698470028EBDB01359DF855
:101150003230D90601D41A0706D5029B59463020F1
:1011600098470028DEDB01359DF83230DB0607D5D5
:101170009DF83300029B594698470028D2DB013581
:101180000D9E2E44731B002B16DC029843465246DC
:10119000594606F02DFE0028C4DB0544A944A9EBFE
:1011A0000503002B7FF77CAE029B59462020984711
:1011B0000028B7DB0135F2E7029B594630209847FB
:1011C0000028AFDB0135DDE7EA8A0000436803F061
:1011D0000303022B70B504460E46816010D0032B2A
:1011E00004D0012B0FD10025284601E0056800201E
:1011F0000023636010B1314604F040F8284670BD0A
:1012000000680025F4E7064A06490748452306F02A
:1012100074FE0348452106F099FD0025E7E700BF6D
:10122000EB8A0000098C00000E8B0000014806F0DC
:10123000FBBB00BF8887000008B5D0B14368042B12
:1012400011D100220368BFF35B8F53E8001F01290F
:1012500003D143E800200028F7D1BFF35B8F074894
:1012600008BF104608BD3BB1006803F0C9FE00206E
:10127000F8E76FF4E040F5E70148F3E7E98FFFFF97
:10128000EA8FFFFF10B5044618B90D4B0D485B6897
:101290009847616808290DD031F004030AD011F095
:1012A000020108D00848214603F046FD00232360D0
:1012B0000023636010BD2068142206F07FFEF7E76C
:1012C0008C0100202B8B0000E405002010B50446A3
:1012D00018B9164B16485B6898476368042B23D0EF
:1012E000082B21D0CBB92368BBB912484FF0FF328D
:1012F0004FF0FF33214603F0B3FC08B923681BB954
:101300000A4B0D485B68984720681422002106F0BC
:1013100055FE636843F002036360206807F052F8EB
:10132000636843F00103636010BD00BF8C010020BF
:101330002B8B0000E4050020518B000008B508B39A
:101340004368042B10D101220368BFF35B8F53E87D
:10135000001F002903D143E800200028F7D1BFF384
:101360005B8F0BD1002008BD53B100684FF0FF32F6
:101370004FF0FF3303F044FD0028F3D00348F2E7B9
:101380000348F0E76FF4E040EDE700BFE98FFFFFAF
:10139000EA8FFFFF08B5064906484023142206F0ED
:1013A000F5FFBDE808400449044806F09FBB00BFB4
:1013B00004060020E4050020A087000090870000BC
:1013C0002DE9F04FB0F81C9085B019F0080F0446D5
:1013D000039222D001290CBF49F0100949F02009DD
:1013E000A0F81C901434204605F00AFC68B99F4A06
:1013F0009F49A048AC2306F080FD9F48214606F097
:101400007CFD9A48AC2106F0A1FC039B83F3118874
:10141000BFF36F8F05B0BDE8F08F984FDFF85482AF
:1014200009F00709022906D1204606F010FD002820
:10143000D8D0012868D1D4F818B0A38BBBF1000F25
:101440000ADA0026256823F00703C4E9006643F0A2
:101450000103A383019627E003F00702511F01292E
:1014600034D8002123F00703062A25689BB2C4E97B
:1014700000110CD18D422A4638BF0A462AB1E18BB1
:1014800012680131E183002AF8D143F00203A383FB
:10149000204606F0DCFC06460028DBD0A38B43F098
:1014A0002003A38300230193A38B03F007024A4583
:1014B000029203D0A268002A40F0F0801DB9019A80
:1014C000002A00F036814FF00009E9E0042A0ED12D
:1014D00023F007039AB2A283204606F0B8FC054623
:1014E00018B142F02002A28300250195DCE74046B6
:1014F000634940F21B133A4606F0FFFC40F21B1111
:10150000384606F023FCEFE7032835D1B9F1000F88
:101510000BD05C4940464FF4AB733A4606F0EDFC05
:101520004FF4AB71384606F011FC23685BB956499D
:10153000404640F257133A4606F0DFFC40F257119E
:10154000384606F003FC23691B6801935BB94F49D9
:1015500040464FF4AD733A4606F0CFFC4FF4AD7100
:10156000384606F0F3FBA38B23F0070343F0060392
:10157000A3830025AB4697E7042832D1B9F1020FC7
:101580000BD04349404640F25D133A4606F0B5FCA5
:1015900040F25D11384606F0D9FBE38B5BB13D4963
:1015A00040464FF4AF733A4606F0A7FC4FF4AF71D4
:1015B000384606F0CBFB23695B6801935BB933497E
:1015C000404640F261133A4606F097FC40F2611142
:1015D000384606F0BBFBA38B23F0070343F004035C
:1015E000C6E7052832D1B9F1010F0BD02A49404690
:1015F0004FF4B2733A4606F080FC4FF4B2713846AD
:1016000006F0A4FB23685BB91F49404640F265130E
:101610003A4606F072FC40F26511384606F096FB39
:1016200023699B6801935BB9184940464FF4B47332
:101630003A4606F062FC4FF4B471384606F086FB79
:10164000A38B23F0070343F0050391E70C4940F215
:101650006B133A46404606F050FC002540F26B11F1
:10166000384606F073FB019584E700BF218C00002B
:10167000478C00000E8B00005E8C00007E8B00000B
:10168000098C0000A08B0000AC8B0000CF8B000009
:10169000E68B0000FC8B00000B8C00004FF0010972
:1016A00043F0080304F1140AA383504605F0A8FA96
:1016B00068B93A4A3A49AC23404606F01EFC39481C
:1016C000514606F01AFC3548AC2106F03FFB039B5F
:1016D00083F31188BFF36F8FB9F1000F38D1002D5C
:1016E0004BD1019B13B13049204698474FF020035E
:1016F000EFF3118B83F31288BFF36F8F5046CDF851
:101700000CB005F06FFA68B9244A28498123404695
:1017100006F0F3FB2648514606F0EFFB1F488121F7
:1017200006F014FB504605F07BFAA38B23F0080368
:10173000A383A38BDA0628D523F01003A38301210A
:10174000B4F81C9009F0070900297FF46BAE49E654
:10175000A1680029C3D00B68029A002B38BF002370
:1017600099464B6820461E465B46B047B9F1000FCC
:10177000B5D0D9F800304946EEE72946029A2D68DF
:101780005B46204606F07FFBA9E713F020011EBF51
:1017900023F02003A3830221D2E700BF218C0000A5
:1017A000478C00005E8C0000B5170000738C0000B1
:1017B000888C0000F8B504460D4600F114064FF081
:1017C0002003EFF3118783F31288BFF36F8F304646
:1017D00005F008FA68B90C4A0C490D48812306F057
:1017E0008CFB0C48314606F088FB0748812106F047
:1017F000ADFA304605F014FAA5613A4620460121BB
:10180000BDE8F840FFF7DCBD218C0000738C0000C0
:101810000E8B0000888C00002DE9F04704460F462F
:1018200006F047FB051E5EDB04F114094FF02003B0
:10183000EFF3118A83F31288BFF36F8F484605F0E8
:10184000D1F968B9384A39493948812306F055FB3E
:101850003848494606F051FB3348812106F076FAB4
:10186000484605F0DDF9E38BA28B4FF6FF718B4202
:1018700002F0070650D0022E24D10133E38335460F
:101880004FF00108484605F0BBF968B9264A2A49D5
:101890002748AC2306F031FB2848494606F02DFBCB
:1018A0002148AC2106F052FA8AF31188BFF36F8FFA
:1018B000B8F1000F17D0002332463946204606F013
:1018C000E2FA10E0930701D0062E0FD100233B600F
:1018D0006368F3B9C4E900773546FEB95246022180
:1018E0002046FFF76DFD2846BDE8F087052E18D08D
:1018F000012E0BD012490E48124A40F2C91306F0CD
:10190000FCFA104840F2C91106F020FA6FF0040505
:1019100004E01F606760DFE76FF00A054FF0000822
:10192000B0E76FF08505F9E7218C0000738C0000AB
:101930000E8B0000888C0000478C00005E8C00003D
:101940000B8C00007E8B00002DE9F84305464FF01C
:101950002003EFF3118683F31288BFF36F8F2348C0
:1019600005F040F968B9224A22492348812306F04C
:10197000C4FA1E49214806F0C0FA1D48812106F02C
:10198000E5F91A4805F04CF91D4B1C68002C38BFCE
:1019900000249CB11B4FDFF878804FF00C09D4E98C
:1019A0000132002D08BF13462BB198F8142009FB13
:1019B00002F2B85C98472468002CF0D10B4805F07F
:1019C0001FF968B90A4A10490B48AC2306F095FA8A
:1019D00006490E4806F091FA0548AC2106F0B6F922
:1019E00086F31188BFF36F8FBDE8F883040B0020E6
:1019F000218C0000738C00000E8B0000888C00008E
:101A0000080B0020140B0020478C00005E8C0000A7
:101A1000780C002000F01F0301229A400A4BBFF30C
:101A20005B8F400903EB800050E8003F43EA02016E
:101A300040E8001CBCF1000FF6D1BFF35B8F1A42E7
:101A400014BF012000207047200B002030B51D4B33
:101A50001D7DBFF35B8F05F01F0301229A401A4BD7
:101A6000690985B0D04303EB810353E8001F01EA05
:101A7000000443E8004CBCF1000FF6D1BFF35B8FCC
:101A8000114217D0114C0C2202FB054207CA01ABD0
:101A900083E807000E4A7AB193E8070006F0AAFA35
:101AA0000020FFF751FF0C236B430022E118E250A6
:101AB000C1E9012205B030BD82F31188BFF36F8FF9
:101AC000EEE700BF780C0020100B0020140B002064
:101AD000F57F00002DE9F041374BDFF8F4801C7DE5
:101AE00088B007462046FFF795FF60B96E463A4634
:101AF0002146304606F00EFA96E807000C2505FB55
:101B0000048585E807000C23634308EB030218F8FB
:101B10000300650904F01F06C8B37B1C0FD0D2F880
:101B200008E02648264A4FF4004C00210023ECFB35
:101B30000E01FEF7C7FC0121381A05F033FA03F055
:101B400001FD0120FFF700FFBFF35B8F1D4B01225A
:101B5000B24003EB850353E8001F114343E8001034
:101B60000028F8D1BFF35B8F0C2303FB048494E8B7
:101B7000070005AB83E80700134A1AB193E8070092
:101B800006F025FAFFF762FF04F020FA01200F4A61
:101B9000BFF35B8F0123B340DB4302EB850555E8C0
:101BA000002F1A4045E800210029F8D1BFF35B8FD0
:101BB00008B0BDE8F08100BF780C00203F420F0064
:101BC00040420F00100B0020CF7F0000200B0020B0
:101BD000140B00200B6801330B60014B1B68184786
:101BE000D0000020014B1860704700BFD0000020DB
:101BF00007B50B46002102460191034801A9FEF7F3
:101C000025FF03B05DF804FBD51B000008B54FF0BD
:101C10002002EFF3118382F31288BFF36F8F00F07D
:101C2000A1FC034806F069F900F00AF8FCE700BFE0
:101C3000A08C0000014910220A60704710ED00E0FE
:101C400072B6404080F31188BFF36F8FBFF34F8FA0
:101C500030BF62B6BFF36F8F704700BF72B64940A6
:101C600081F3118820BF80F3118862B6704700BFEE
:101C700001B572B60B4A906900281EBF0021916120
:101C800006F07DFB62B6EFF30580A0F110004FEA8D
:101C9000C0000549014409C99847BDE8014003490E
:101CA00008470000780C0020D0850000D51E0000F9
:101CB00030BFFFF7FDBF00BF12498A684FF0300008
:101CC0001044EFF3098C80E8F01F202080F3128885
:101CD000BFF36F8F0C4F4FF00066CA698A603E6099
:101CE000906F0023936780F3118804B5104600F0CD
:101CF000E7FABDE8044002F1300090E8F01F8CF3F1
:101D000009887047780C002004ED00E01EF0040FF5
:101D10000CBFEFF30880EFF30980816911F8021C12
:101D20000229FFD001B506F006F901BD43B2002B30
:101D300008DB012200F01F0002FA00F05B09024AF2
:101D400042F82300704700BF00E100E0054B420964
:101D500000F01F0053F82220012303FA00F0104086
:101D6000704700BF00E100E070B54C1C072C054631
:101D70000E460FD9114A12491248592306F0BDF8F0
:101D80001148314607232A4606F0B7F80B48592177
:101D900005F0DCFF6BB2002BACBF03F160430B4BD3
:101DA0004FEA4414B8BF05F00F05E4B2AABF03F52B
:101DB00061435C5583F8004370BD00BFC98C0000CF
:101DC000FF8C00000E8B00001A8D000014ED00E067
:101DD0000B4A08B50B4B22F07F029A60BFF34F8F7E
:101DE000BFF36F8FD3F8882022F47002C3F88820E5
:101DF00002F07EFE05F0A4FD00F0F6F902F082FE8E
:101E00000000000000ED00E0094A0A4993680968F3
:101E1000D967094998674B6843F080534B600023AA
:101E200083F31188BFF36F8F9368D86F704700BF3B
:101E3000780C0020D088000000ED00E042F8203C43
:101E4000009B42F81C3C0A49019B42F8183C029B4B
:101E500042F8143C21F001014FF0807342F8043C39
:101E600042F8081C0023203A02658367704700BFD0
:101E70001F7F00000B4A0346906890B113F1160FC4
:101E8000806E05D0A0F120029A4206D8834204D287
:101E900081422CBF0021012100E00021002908BF60
:101EA00000207047780C002008B5094B98600D465B
:101EB000144600F005FA204685F30988002163B630
:101EC00081F31188BFF36F8F0022002306F027F8FB
:101ED000780C0020044B9968D869884203D00349E4
:101EE0004FF080520A607047780C002004ED00E04B
:101EF000EFF30880EFF3098101B5724600F0AEF808
:101F000001BD00BF002080F31488BFF36F8F06F07F
:101F1000D9FA00200D490860BFF34F8F0C4880F3B9
:101F2000088800F07DF9202080F3118809484FF4DB
:101F30000261401880F30988EFF3148002210843FE
:101F400080F31488BFF36F8FFFF742FF94ED00E03A
:101F500020230020A0240020234B70B515469A6A48
:101F60009A6A9A6A044690071AD5586B9A6A1206BA
:101F700016D519B19A6A22F080029A629A6A9A6A10
:101F80009A6AD6060FD49B6A99070CD40024164A85
:101F9000936A43F0FF03936200232B70204670BDC9
:101FA0006FF01500EAE7104E73681A05EED521466A
:101FB000FFF760FF044618B180F309880224E6E7C2
:101FC000B36ADB06E2D5094A09490A4840F24913D7
:101FD00005F093FF084805F090FF044840F24911CE
:101FE00005F0B4FED3E700BF00ED00E05A8D00001D
:101FF000948D00000E8B0000DE8D00000D4B9A6A60
:102000009A6A9A6A920508D59A6B9A6A120404D55C
:1020100018B19A6A22F400429A62064B9A6A9A6A46
:10202000D20558BF9A6A9A6A002042F47F429A62A7
:102030000870704700ED00E0074B9A6A9A6A9A6A46
:102040009A6A9A6A9A6A9A6A6FEA02426FEA124236
:102050009A620020704700BF00ED00E070B5544B5D
:102060005C688AB00D46C4F30804002686F3118824
:10207000BFF36F8F02F07F43B3F17F4F08D102F0BF
:102080000C03082B04D012075CBF054601267DB95E
:10209000484A4949494840F2F23305F02EFF484882
:1020A00005F02BFF434840F2F23105F04FFE0025CA
:1020B00000238DF80730E31E032B72D8DFE803F00E
:1020C00002696D493A4BDC6A14F0020469D1DA6A9C
:1020D000002A18DBDB6A5B004ED5AB6933F8022CB3
:1020E0004DF602739A420DD003F1604303F6266366
:1020F0001B780BB30DF1070201212846FFF72CFFD7
:10210000044600E02C689DF807309BB92022294640
:1021100002A805F048FF099B002E44D0C3F3080233
:1021200022B96FEA53236FEA4323099302A9204699
:1021300005F0FFFE0AB070BD224B1B782BB10DF1EC
:1021400007010120FFF75AFFDAE71F4B1B889BB2FC
:1021500013B1FFF771FFD3E71C49164A174840F245
:10216000C32305F0CAFE1A4805F0C7FE40F2C3219A
:10217000104805F0EBFDC6E714490E4A0F4840F23F
:10218000C72305F0BAFE134805F0B7FE40F2C72199
:10219000EEE70DF107020021AFE70DF10701002086
:1021A000D0E70024AFE723F4FF7323F00103BCE77B
:1021B00000ED00E05A8D0000018E00000E8B000043
:1021C000148E000029ED00E02AED00E0098C0000EB
:1021D000528E0000768E0000024A536943F01003CD
:1021E0005361704700ED00E0044800232021C2182D
:1021F0000133302B82F80013F9D1704700E100E081
:10220000064A11680023C1F3072118468B4200D10A
:102210007047936010610133F8E700BF90ED00E074
:1022200008B572B6002383F31388FFF7E9FF144B58
:102230004FF0FF32C3F88020C3F88420C3F8882011
:10224000C3F88C20C3F89020C3F89420C3F89820DA
:10225000C3F89C20C3F88021C3F88421C3F88821E7
:10226000C3F88C21C3F89021C3F89421C3F89821B6
:10227000C3F89C2162B6BFF34F8FBFF36F8F08BDC9
:1022800000E100E0064B9B68834207D1EFF3058332
:1022900023B1044A536843F08053536004F05AB9A1
:1022A000780C002000ED00E0024B034A03480121B6
:1022B00000F068B80000042000000020B48700008F
:1022C000826E054B203A1A60044A2021C3E90112AC
:1022D0001846012100F07EB8240B002000000B15E9
:1022E000F0B51E4F00268E4201DB1046F0BD44685B
:1022F00084B353B104F1FF3C14EA0C0F18D11F2C26
:1023000016D905681CEA050F12D1202C0568D0F8F3
:1023100008C0D2B20FD9B4F1004F0ED8013CB4FAC4
:1023200084F4C4F11F046400072A4CEA040406D9AB
:102330006FF01502D9E70824F6E73E24F4E725F00C
:102340001F05154345F0100544F00104BA60FD6017
:1023500001323C6101360C30C5E700BF90ED00E072
:10236000034B05225A60BFF34F8FBFF36F8F704747
:1023700090ED00E0BFF35F8F014B00225A60704781
:1023800090ED00E038B50E4D01232A780C46FFF79A
:10239000A7FF2870163011D140F21113094A0A49DB
:1023A0000A4805F0AAFD2146094805F0A6FDBDE84A
:1023B0003840044840F2111105F0C8BC38BD00BFD8
:1023C000EE0C0020A68E0000098C00000E8B000091
:1023D000DD8E000010B5124A002312780C46FFF77C
:1023E0007FFF10F1160F08D00E4B0022072800DDEA
:1023F00010BD98601A610130F8E70B4A0B490C4890
:102400004FF4987305F079FD21460A4805F075FDF3
:10241000BDE8104004484FF4987105F097BC00BF28
:10242000EE0C002090ED00E0A68E0000098C00006C
:102430000E8B0000098F0000254910B50C68082C90
:1024400013D94FF4A473234A2349244805F055FDBA
:1024500023480822214605F050FD1E484FF4A47180
:1024600005F074FC4FF0FF3010BDFFF783FF4868A4
:102470001C490022944200F10C0019D11A4B1C7027
:10248000FFF76EFF0B68C3F30723082B0ED0174925
:10249000104A12484FF4D47305F02FFD144805F08C
:1024A0002CFD0C484FF4D47105F050FC0020DBE704
:1024B0008A6050F80C3C23F01F03134343F01003D1
:1024C000CB6050F8043C43F001030B610132D1E7CB
:1024D000C0870000A68E0000098C00000E8B000053
:1024E000368F000090ED00E0EE0C00206A8F0000B7
:1024F000BA8F0000014B1860704700BFD400002065
:102500004FF02003EFF3118183F31288BFF36F8F35
:102510000F4A0123C2F840354FF08042C2F87835A7
:102520000C4A1268082A08D10B4A1268052A04D8F6
:102530000A48825C0AB10A4A13604FF080430122C4
:10254000C3F8802581F31188BFF36F8F0020704797
:1025500000E001403001001034010010EA8F00005B
:10256000380600404FF08043C0B2C3F81C05BFF3EB
:102570004F8F0549054BCA6802F4E0621343CB60F4
:10258000BFF34F8F00BFFDE700ED00E00400FA0548
:1025900020B1034B800143F001031847704700BF8F
:1025A00080870000054A0123C2F8003508B1D360D6
:1025B00070471360024A1360704700BF007000400C
:1025C00004700040087970B500F01F04072C1FD874
:1025D0000B78092B1CD8DFE803F006060606061B5D
:1025E000051E1B2005234A78032A18D0042A0FD180
:1025F00000254A8844F20A06B24244D011D844F277
:102600000306B2423BD044F20506B24239D0D2B3FF
:102610006FF0150032E00623E5E70723E3E7012525
:10262000E7E744F21406B2422FD044F22806B24241
:102630002DD044F20F06B242EAD10322C0F340107B
:102640001B0243EA005343EA053343EA02432201F3
:1026500002F1804202F5E0420020C2F81835230161
:1026600003F1804303F5E0438A79C3F81425C3F8E6
:102670001005084B1C444B7984F8A83070BD00222B
:10268000DCE70122DAE70222D8E70422D6E70522B6
:10269000D4E700BF00000020F7B50546406810B938
:1026A0006FF015009CE030F0FF02F9D1574C584F05
:1026B000114620FA02F313F0010333D0BB1893F84C
:1026C000A8C0BCF1000FEBD004EB021E6E7CDEF85C
:1026D0001835003E18BF012623F0807343EA0663D5
:1026E000CEF8183502F151031B01013144F803C043
:1026F000C9B20132082ADCD12B7C083B062BCFD88B
:1027000001A252F823F000BFED270000A12600002F
:102710002F270000A1260000E5270000A1260000C9
:10272000E927000002F151063601A351E1E7012239
:10273000364B0129C3F8F0256A7C59D9002AAFD15C
:10274000C3F8F4252A684B0012B1928902FB0333C7
:10275000EA689A4256D32D4BAA68C3F82C262F4616
:10276000C3F830160FCF2A4C04F17C060FC63B6825
:1027700033602B6800262667002B3CD00FCB04F17A
:10278000900585E80F00E567A4F8A06098B3BFF353
:102790005B8F54E8003F44E80062002AF9D1BFF3A0
:1027A0005B8F1C48D4F890601B4A4FF40045002111
:1027B0000023E5FB0601FDF785FE0022CDE90001BF
:1027C000002304F1080004F00DFE94F87830BBB942
:1027D00012484FF0FF324FF0FF3304F01DF8206F26
:1027E00003B0F0BD0222A3E70322A1E700229FE786
:1027F000082AA5D954E794F88E00FFF7D3FEE4E742
:102800000020EDE76FF00B00EAE700BF007000402A
:10281000000000203F420F0040420F0058000020FF
:1028200070B50C4616460D4D4FF0FF324FF0FF339A
:1028300005F1400003F0F0FF0123204685F87830D1
:102840006E67FFF729FF95F87830044603B110B1A1
:10285000034803F09DFF204670BD00BF000000202C
:10286000400000200D4B10B500241C601B680C4B71
:102870001C601B680B4B1222C3F804230720FFF7D0
:1028800055FA224601210720FFF76EFA0648836CAD
:1028900013B9403003F07CFF002010BD04710040EC
:1028A000107100400070004000000020344B1A6896
:1028B00010B5002A55D000221A601B68314C324BEB
:1028C00001211960C3F8F824E36FDBB3D4F8943026
:1028D00043B1B4F8A02004F17C019847012814D03A
:1028E000022829D0B4F8A030B4F89C209A4223D909
:1028F0000133A4F8A030254BD3F82C26D3F8341696
:1029000089B202EB4102C3F82C26D4F890302BB9DF
:1029100094F88E00BDE81040FFF744BEBFF35B8F14
:1029200054E8003F5A1E44E800210029F8D1BFF3C3
:102930005B8F012BECDC10BDD4F8903013B1144840
:1029400005F09AFD94F878304BB1606F10B100211A
:1029500002F094FC0F48BDE8104003F019BF0E4888
:10296000F9E70E4B19680029E5D01A60064A1B6882
:102970000123136042F8083C42F8043CDBE700BF47
:10298000047100400000002008700040007000400A
:102990000800002040000020580000201071004076
:1029A00038B50C460C4D4FF0FF324FF0FF3305F1B8
:1029B000400003F031FF0023204685F878306B6734
:1029C000FFF76AFE95F87830044603B110B103486A
:1029D00003F0DEFE204638BD00000020400000204D
:1029E0002DE9F041104C071BC7F347174FF00C08B7
:1029F00008FB07F8064608F148000D462044402130
:102A000005F01AFB011E09DB084B4444C4E91035EC
:102A1000074B53F83730BDE8F041184730462B4696
:102A2000BDE8F041184700BF400B00209B8000002C
:102A30000888000038B5CCB2012C054609D90949EF
:102A400009480A4A792305F058FA0848792105F01F
:102A50007DF92B690C2104FB0134A06C00F0070008
:102A600038BD00BF2D9000000E8B0000F08F0000DD
:102A7000F8B5CCB2012C0769054616460BD91849A2
:102A80001848194A40F24D1305F037FA164840F23B
:102A90004D1105F05BF94FF02003EFF3118283F342
:102AA0001288BFF36F8F0C2303FB0471896C11F044
:102AB000C00101D08E4210D103FB0473012199643F
:102AC000002082F31188BFF36F8F28B9696801EB8A
:102AD000C404636898470020F8BD4FF0FF30F0E76A
:102AE0002D9000000E8B0000F08F000070B50D4699
:102AF0000649411A0446491105484022FFF7B8FF2C
:102B00002B4601462046BDE870401847400B002088
:102B100040850000002270B5012104461046FFF7F1
:102B200023F90020FFF702F90F4801F057F80F4B87
:102B3000984215D101F076F826690D49304605F026
:102B4000C7F900280BDB0125B5642469084904F1A5
:102B5000200005F0BDF9002801DB6565002070BD8F
:102B60006FF00400FBE700BFA92B00000000AD0BD5
:102B70001888000001460C2309484B4370B5C4185F
:102B8000D4E91056002248332264184405F072FA42
:102B90002DB132462B460348BDE87040184770BD42
:102BA000400B002040850000012808B506D003280E
:102BB00008D0A8B9104B9B6C5B071BD1BDE808403F
:102BC000FFF7D8BF0D490E4A0E4840F25E2305F0CC
:102BD00094F940F25E21BDE80840094805F0B6B816
:102BE0000649074A074840F2622305F086F940F299
:102BF0006221F0E708BD00BF400B0020098C0000F7
:102C0000F08F00000E8B000008B54FF02003EFF3AB
:102C1000118183F31288BFF36F8F124A136843F058
:102C2000020013F0010310600CD04FF08042D2F884
:102C30000C34D2F80C2413F0010303D00A4805F039
:102C400019FA012381F31188BFF36F8F23B1BDE817
:102C500008400020FFF78EBFBDE80840012001F0CA
:102C600001B800BF980B0020880B0020094BBFF370
:102C70005B8F53E8002F22F0020143E80010002888
:102C8000F7D1BFF35B8FD30702D4012001F03EB828
:102C9000704700BF980B00207FB500220123CDE9CB
:102CA000022304ABCDE90433094ACDF800D06B46CA
:102CB000CDF804D005F003FA002805DB4FF480427C
:102CC0000023684603F0A8FD07B05DF804FB00BFD1
:102CD000B98000002DE9F8434949BFF35B8F0546F1
:102CE000012251E8003F41E800200028F9D1BFF35C
:102CF0005B8FA3B9434944484B60CB608A60FEF7C1
:102D00008BFD00280BDA41494148424A4FF40873D1
:102D100005F0F3F83F484FF4087105F017F8ADB32C
:102D20006B1E012B56D8012D07D14FF08043D3F8ED
:102D30001C3403F00303012B28D005F088FB044664
:102D400018B9354B1B78002B52D14FF02003EFF30D
:102D5000118683F31288BFF36F8F01242F4FDFF8A2
:102D6000C480DFF8C4904FF08042D2F81834D2F813
:102D70001824D2030CD503F00303012B01D0012D3D
:102D800006D10CB386F31188BFF36F8FBDE8F883CB
:102D9000ACB13046FEF762FF4FF08042D2F81835F2
:102DA000002BE0D139680029DDD03B603B6801236E
:102DB000C2F81835C8F88031C9F80030D3E70021CF
:102DC000212003F079FBE7E74FF080430222C3F8AC
:102DD0000423DBE712490E480E4A40F2322305F085
:102DE0008CF8BDE8F8430B4840F2322104F0AEBF46
:102DF0004FF080430222C3F808230646AEE700BF27
:102E00009C0B0020300B0020600B00205190000034
:102E10000E8B0000F08F0000FF1000200401004026
:102E2000098C000000E100E00800004008B5084BF4
:102E30000848186005F099FA38B10748FFF75AFBBF
:102E40000548FEF7CFFE002008BD6FF01200FBE73B
:102E5000A00B0020A08500005D2E00000A2838B5D8
:102E6000074D044604D1286883680D215B689847A4
:102E700028688368E1B25B689847204638BD00BF88
:102E8000A00B002070B5056916460C4661B92249B1
:102E9000224A2348242305F030F8224805F02DF873
:102EA0001E48242104F052FF636863B91E491B4A7F
:102EB0001B48252305F021F81C4805F01EF817488B
:102EC000252104F043FF6B685BB100229C4213D1C3
:102ED00023685AB9AA686B60944200D1AB600023A2
:102EE000236076B9002070BD0B46EFE71360AB6836
:102EF0009C4208BFAA60F2E719681A460029F3D17C
:102F00003EB16B682360A8686C600028EAD1AC60B1
:102F1000E9E76FF01500E6E78D9000006090000093
:102F20000E8B000096900000A5900000B790000066
:102F300043092DE9F04703D0012B36D0BDE8F087D7
:102F40001B4F3B695C68002CF8D02568DFF86C806B
:102F5000DFF86C90DFF86CA000F01F000126002D58
:102F600006FA00F638BF0025A3681E4214D0636835
:102F700063B9494645234246504604F0BEFF0D481A
:102F800004F0BBFF4521404604F0E0FED4E90132E5
:102F90002146324038469847002DCFD02B68002B71
:102FA00038BF00232C461D46DEE7034FC9E700BFAC
:102FB00058850000B7900000708500006090000008
:102FC000CE9000000E8B00007FB54068057B01F0BD
:102FD0001F04B2F5005F44EA45144FF0000504D128
:102FE000204601F02BFA002054E0B2F5804FCDE9E5
:102FF000025551D1B3F5003F0CBF042305238DF8D2
:103000000830836823FA01F111F0010155D1B2F5BE
:10301000A03F52D166094AD04FF6FF73012E08BF78
:10302000194604F01F05E940CA070BD42B492C4868
:103030002C4A40F2292304F060FF2A4840F229215B
:1030400004F084FE6EB1012E34D027492448254A6D
:1030500040F22E2304F051FF224840F22E2104F0CA
:1030600075FE4FF0A04305F5E07553F82530DB07FA
:1030700023D40DF107052946204601F009F91B4B21
:10308000984219D1284601F063F9194B984213D0A0
:103090006FF00B0004B070BDB3F5C02F05D0B3F5D1
:1030A000003F0CBF02230123A9E70323A7E74FF04A
:1030B000FF31B6E70F4BD6E703950023194602AA66
:1030C000204600F0C7FF0A4B984204D10121204658
:1030D00001F044F987E76FF00400DBE70D91000091
:1030E0000E8B0000DA900000098C00000400AD0B8C
:1030F0000000AD0B0003005010B501F019F90446B3
:1031000068B901F0EDF8084B98420AD1074821460A
:1031100001F0B8F8224605210620FEF725FE002022
:1031200010BD6FF00400FBE70000AD0B312F000075
:103130002DE9F04347683B7B01F01F0585B00E4643
:1031400045EA43151446CAB902A9284601F0A0F879
:103150000446284601F094F9484B984204D06FF099
:10316000040005B0BDE8F083844205D19DF8080055
:1031700001F0E8F8A042F2D10020F2E74FF0000998
:103180000DF103013046CDE9029901F081F84B467B
:10319000804602AA4946284600F05CFF374B984219
:1031A00002D06FF01500DCE7804503D19DF80300E5
:1031B00001F0C8F8A3054ED5314B324A2340934263
:1031C0003AD00CD8062B14D004D893B1022BE8D1F6
:1031D00004230EE0B3F5801FE3D1012309E02A4A5E
:1031E00093422BD0B3F5A00F2AD0B3F5800FD8D1DE
:1031F00002238DF8043084F48073C3F30023E006C7
:103200008DF8053054BFC4F34013032321058DF816
:10321000063017D57B68012101FA06F6C3F8086568
:10322000002201A9284600F0BDFF144B984214BFAC
:103230006FF01500002094E70723DAE70523D8E7AD
:103240000323D6E7620541BF7B68012101FA06F638
:10325000C3F80C65E4E7E3064FF0000354BFC4F382
:10326000401403241A4601A928468DF8044000F0B2
:10327000F1FE024B98423FF47FAF92E70000AD0BA6
:103280000600F0000600100002004000F0B54B7987
:10329000012B26D0032B21D110268B79032B1DD196
:1032A000CC790CB1012C19D10A7912B1022A15D1AD
:1032B0000E220B684568B3F5164F2D6865D02DD8E2
:1032C000B3F5165F64D016D8B3F5966F62D00AD8FE
:1032D000B3F5967F61D0B3F5167F61D06FF08500AE
:1032E00052E00026D9E7B3F5166F5CD0B3F5965FD0
:1032F000F4D1374B3CE0B3F5E14F57D007D8B3F5E5
:10330000615F55D0B3F5964FE8D1324B30E047F6C8
:103310001227BB42E2D14FF4000329E0B3F5613F2D
:1033200048D013D8B3F5963F47D009D84DF6C027FB
:10333000BB4244D0B3F5614FD0D14FF46B0317E0DB
:10334000B3F5E13FCAD14FF0EB7311E0B3F5612F54
:1033500038D008D8204FBB4237D0B3F5E12FBDD1CC
:103360004FF0E86304E01D4FBB42B7D14FF08053EC
:10337000C5F82435036903C9344322430433C5F82F
:103380006C2583E803000020F0BD4FF41D03EFE738
:10339000134BEDE74FF49E23EAE74FF4A033E7E742
:1033A0004FF41C33E4E74FF41D23E1E70D4BDFE757
:1033B0000D4BDDE74FF06C73DAE70C4BD8E74FF4B9
:1033C0006503D5E74FF07063D2E74FF08063CFE736
:1033D00000B0130000A04E0090D0030040420F0048
:1033E0000050270000C0750000F03A0000903A013C
:1033F0000268530910B504462CD0012B4FF6FF7319
:1034000018BF002302F01F02D340DB070BD414497E
:103410001448154A40F2292304F06FFD124840F287
:10342000292104F093FC236803F01F025B0922604A
:103430000DD0012B11D00D490A480B4A40F22E2322
:1034400004F05BFD084840F22E2104F07FFC4FF0B1
:10345000A04010BD4FF0FF33D4E70548F9E700BFA7
:103460000D9100000E8B0000DA900000098C000026
:1034700000030050F8B5066905460F4604F0E7FF63
:1034800010B92C4B1B7883B94FF02003EFF3118454
:1034900083F31288BFF36F8F284604F09BFE28BB8E
:1034A00084F31188BFF36F8FEEE76424284604F09D
:1034B00091FE70B9012004F0DFFE013CF6D100213D
:1034C000212002F0F9FFF0E784F31188BFF36F8F3A
:1034D000F5E74FF02003EFF3118483F31288BFF375
:1034E0006F8F284604F076FE0028EDD006F8107F96
:1034F00069680B680122C3F84465C3F848250022B7
:10350000C3F82021D3F82001C3F85821D3F858215B
:103510004A68D20641BF0822C3F800254FF4800252
:10352000C3F8042301229A6084F31188BFF36F8FDC
:10353000F8BD00BFFF1000202DE9F743D0F804804C
:103540000769D8F800400023C4F8003538604568A2
:10355000EB680646581C13D001A80193FFF748FFFB
:10356000019A01239340C0F80835EB68019301A844
:10357000FFF73EFF019B03F5E073032240F8232091
:103580002B69591C11D02A7F0193002A01A814BF6E
:103590004FF003094FF00009FFF72AFF019B03F5E5
:1035A000E0734FEA890240F823206B695A1C13D05C
:1035B00001A80193FFF71CFF019A01239340C0F873
:1035C00008356B69019301A8FFF712FF019B03F512
:1035D000E073032240F82320AB69581C11D06A7FA6
:1035E0000193002A01A814BF4FF003094FF000090E
:1035F000FFF7FEFE019B03F5E0734FEA890240F8F6
:103600002320D5E903122B68C3F80C15C3F8142541
:10361000D5E90512C3F808153169C3F8102504313E
:103620003046FFF733FE0546002846D1D8F804306F
:10363000990719D507F1120001F020F8224B9842A2
:103640003FD1B87CC30003F1804303F5F83304F1A4
:103650000C0204F59071C3F81015C3F814251B4A29
:1036600001238340C2F804350823C4F8003598F8D4
:1036700008305BB9C4F81031D4F8103107F11103E8
:10368000C4F834350123C4F838352360D8F8043041
:103690009A075CBF4FF48072C4F80423DB0644BF72
:1036A0004FF48003C4F8043310370023C4F8447582
:1036B000C4F848350123A360E360284603B0BDE8A1
:1036C000F0836FF00405F8E70000AD0B00F0014057
:1036D000194970B5044622F07F460868C1E9002305
:1036E000A6F50013101AB3F5400F4FF000050AD2EB
:1036F000124B19680A060B0A9219114943F100038B
:10370000C1E90023012503F09DFCA30003F18043E0
:1037100003F58833D3F84025B2420BD11DB94FF4DD
:103720000002C3F84025074B4FF4803000FA04F440
:10373000C3F8444370BD00BFF0030020C40B002059
:10374000D80300200010014010B501238340114A26
:10375000BFF35B8FDC4352E8001F01EA040C42E830
:1037600000CEBEF1000FF6D1BFF35B8F4FF4803275
:1037700002FA00F002F1804202F58052C2F808031A
:10378000BFF35F8FBFF36F8F0B4214BF0120002088
:1037900010BD00BFC00B00200123124ABFF35B8F96
:1037A000834052E8001F194342E8001CBCF1000F9F
:1037B000F7D1BFF35B8F0C4A4FF480338340C2F8DC
:1037C00004330A4BBFF35B8F1B68BFF35B8F23FA95
:1037D00000F0C30742BF064B4FF40032C3F800218C
:1037E000704700BFC00B002000100140BC0B002040
:1037F00000E100E00D4B1B68190A1806BFF35F8F4C
:103800000B4BD3F80435C01841F10001B3F5801F0C
:103810000AD2084BD3E90023994208BF904203D251
:1038200010F1807041F10001704700BFC40B00200F
:1038300000100140D80300202DE9F04F85B0164656
:103840001F460546FFF780FF0190FFF7D3FFB942FF
:1038500008BFB0427FD2B6EB000867EB0109002336
:103860004FF080724B4508BF4245C0F08580444B05
:1038700003EB0513D3E902239F4208BF964254D0BD
:103880004FEA85094FF4803B09F1804905F1500862
:103890000BFA05F209F588394FEA88081FFA88F80B
:1038A0000292384AD9F8400526F07F4308F1804853
:1038B00008F588381C469346D2F804A5A0EB0A0008
:1038C00020F07F402AF07F410128C9F8401505D13A
:1038D0000393132004F0CCFD2A4A039B02990AF1BA
:1038E000020CA4EB0C0020F07F40B0F5000F88BF65
:1038F00064460020C8F80000D8F80000CBF8441354
:1039000024F07F40C9F84005DBF80405824506D065
:10391000201A023820F07F40B0F5000F19D8E41AC1
:1039200024F07F44321947F10003154C290104EBC0
:103930000510C0E902230E9A0F9B625043600024D9
:10394000019B13B12846FFF727FF204605B0BDE8CD
:10395000F08F2046B0E701230B4ABFF35B8FAB40EB
:1039600052E8001F194342E800100028F8D1BFF3C5
:103970005B8F32463B46D8E76FF01504E0E700BFA7
:10398000E003002000100140BC0B002073B5194B70
:10399000194D00244FF0FF304FF0FF31C5F80845B6
:1039A000C3E902014FF48033C5F80433134B0226F8
:1039B0004FF400320121C5F804631120C3F88021BF
:1039C0002246FEF7D1F91120FEF7B0F90C4A012387
:1039D00013600C4A2B6013600B4B0C4A009301944C
:1039E00000232046FFF728FF3046FFF773F92046F3
:1039F00002B070BDE00300200010014000E100E0D3
:103A000008100140C00B0020D1360000FFFF7F00EE
:103A10002DE9F743344CD4F804339A0709D5334BD6
:103A20001A6832B100221A60314A1B6813680133E8
:103A300013604FF02003EFF3118283F31288BFF37A
:103A40006F8FD4F80433DB0312D5BFF35B8F294BA0
:103A500053E8001F21F0010043E80006002EF7D1D3
:103A6000BFF35B8F244B002936D11968002933D16D
:103A7000002382F31188BFF36F8F53B3FFF7BAFEB1
:103A800006464FF02003EFF3118083F31288BFF353
:103A90006F8F1A4BD3E90289494508BF46454FF05D
:103AA00000021ED34FF0FF364FF0FF37D3E9001569
:103AB000C3E902671A604FF48033C4F8483380F3D7
:103AC0001188BFF36F8F21B1009542464B4600200D
:103AD000884703B0BDE8F083002119601B6801230B
:103AE000C7E71146EBE700BF001001400411014099
:103AF000C40B0020BC0B002040110140E00300205B
:103B0000144B13B5B0F1FF3F08BF1846441E002CFC
:103B10001EDD9C42A8BF1C46FFF76CFE0E4B0F49F2
:103B2000D3E90023801AB0F5000F28BF002401302C
:103B3000044408480091844228BF044612194FF0FB
:103B40000000019043F10003FFF776FE02B010BDC4
:103B50000024E1E7FFFF7F00F0030020D1360000E2
:103B600008B5FFF747FE024B1B68C01A08BD00BF2F
:103B7000F003002008B578B101281CD0144A15497B
:103B800015484FF44F7304F0B8F911484FF44F71D2
:103B900004F0DCF800200DE031B14FF08043D3F8A1
:103BA000183403F003030B604FF08043D3F818047C
:103BB000C0F3004008BD31B14FF08043D3F80C345E
:103BC00003F001030B704FF08043D3F80C04EFE7D0
:103BD0004C910000098C00000E8B000010B50446CB
:103BE00048B90A490A480B4ABD2304F086F9094836
:103BF000BD2104F0ABF8084B1A7922B9012207481D
:103C00001C609A8010BD0648FCE700BFBD91000013
:103C10000E8B000080910000C80B00200000AD0B4F
:103C20000C00AD0B08B50B4B1B794BB90A490B487F
:103C30000B4AD62304F061F90948D62104F086F82E
:103C40000020FEF783F818B9BDE80840FEF76EB80B
:103C500008BD00BFC80B0020CB9100000E8B0000F8
:103C600080910000224B1B7913B504465BB92149B2
:103C70002148224A4FF4897304F03FF91F484FF45A
:103C8000897104F063F874B1012C27D01B4A1C49D8
:103C900019484FF4A27304F030F918484FF4A27198
:103CA00004F054F816E001A92046FFF763FF4FF037
:103CB000804388B1019A012A0ED1C3F81825114B0F
:103CC00000221A601B684FF080430222C3F80423CD
:103CD00001229A6002B010BD0022EEE70A4B0022DA
:103CE0001A601B684FF08043C3F804431C60F1E77F
:103CF000C80B0020CB9100000E8B000080910000CB
:103D0000098C0000040100400001004037B52F4D30
:103D10002A7904465AB92E492E482F4A40F24B13AD
:103D200004F0EBF82C4840F24B1104F00FF87CB192
:103D3000012C28D029492748274A40F2671304F06C
:103D4000DCF8254840F2671104F000F803B030BDFC
:103D50004FF080430222C3F80823C3F8044103F55F
:103D6000827301221B681E4B42F210741A600021FC
:103D70000846FFF7FFFE0028E8D0012004F07CFA97
:103D8000013CF4D1E2E74FF080430022C3F808433E
:103D9000C3F8002103F580731B68124B1C608DF87B
:103DA000074042F210740DF107010120FFF7E2FE17
:103DB00010B900236B71C9E79DF807000128F8D1FD
:103DC00004F05AFA013CEED1F3E700BFC80B002023
:103DD000CB9100000E8B000080910000098C000048
:103DE0000C00004004000040164B07B51A686AB189
:103DF00000221A601B684FF080430122C3F8082399
:103E0000114B587910B95A711B6898470F4B1A68B3
:103E10006AB10020186001A91B68FFF7ABFE019A88
:103E20004FF0804332B90122C3F818259A6003B0DD
:103E30005DF804FB0222C3F80823034B01201B6832
:103E40009847F4E700010040C80B0020040100403F
:103E500070B501250368B3FA83F2202AC2F11F046A
:103E600014D0BFF35B8F05FA04F223EA020250E894
:103E7000006F9E4204D140E8002CBCF1000FF6D147
:103E8000BFF35B8FE6D102480C7070BD0148FCE7C0
:103E90000000AD0B0200AD0B0368CB40DB0710B593
:103EA00015D4012303FA01F10368BFF35B8F41EAE4
:103EB000030250E8004F9C4204D140E8002CBCF1C2
:103EC000000FF6D1BFF35B8FEED1024810BD024860
:103ED000FCE700BF0000AD0B0400AD0B054B083044
:103EE00033F8100000F02200A0F12203584258419C
:103EF000704700BF0001002070B500F108030C4CB2
:103F000034F81330DA0505460E4607D5C3F34323CC
:103F100004EBC30254F8333052689847A3682BB1BE
:103F2000E26831462846BDE87040184770BD00BFC2
:103F300000010020194B083010B533F81020D105CE
:103F40001DD5C2F3432122F4F85223F8102003F1C7
:103F50001004002034F8022B12F4807F03D0C2F347
:103F6000432291420BD001303028F3D1002243F894
:103F700031200B48FFF790FF0A4B984200D110BD4B
:103F800009490A480A4A4FF4997303F0B6FFBDE89D
:103F9000104007484FF4997103F0D8BE000100208B
:103FA000740100200000AD0B4D9200000E8B00004C
:103FB000E991000038B50A4C00F1080534F81530D5
:103FC0009A0606D55B0B074A03F5A273002142F857
:103FD0002310FFF7AFFF002324F8153038BD00BFD2
:103FE000000100200060004010B50446006804F0A5
:103FF00045F958B912491348134A40F2292303F0EE
:104000007CFF114840F2292103F0A0FE236803F051
:104010001F025B0922600DD0012B0ED00B4909480D
:10402000094A40F22E2303F068FF074840F22E2190
:1040300003F08CFE4FF0A04010BD0548FCE700BF28
:104040000D9100000E8B0000DA900000098C00003A
:1040500000030050F0B5044685B017461D46F1B187
:10406000FFF73CFF10B14A4805B0F0BD0B46CDE963
:1040700000008DF80E008DF80F000DF10F020DF10C
:104080000E01204604F00FF9424A04F1080132F80B
:10409000113023F0020343F0010322F8113097B1ED
:1040A0003C4B3E787A6804F1080033F810108F0713
:1040B0000CD5002AD7D133F8102022F01C0242EA96
:1040C000860223F81020CDBB3348CDE721F0200134
:1040D000C904C90C23F81010002AECD0032EC2D852
:1040E00017782EB92D4A07F5A27142F82160E2E750
:1040F000BA0002F1804202F5C04241EA4731D2F8EB
:1041000010C52CF0030CC2F810C5D2F810C52CF461
:104110004F3C2CF4407CC2F810C5D2F810E54FEAB1
:10412000042C0CF47C5C4EEA064E4CEA0E0C41F07A
:10413000200123F81010C2F810C5BCE7D5E90067CC
:104140002046FFF7F7FE002EBED0124D2B689E4290
:1041500004D16B689F4201D100220AE010480DF1A2
:104160000F01FFF775FE0C4B98427FF47DAF9DF871
:104170000F2045F8326005EBC20308345F6035F864
:10418000143043EA422343F4807325F814309BE74C
:104190000400AD0B000100200000AD0B00600040EA
:1041A00074010020F0B5044685B0154609B300F14E
:1041B0000807314E36F81730980701D49A0658D4BC
:1041C00013F01C0F02D04B78012B52D001238DF835
:1041D0000F300023CDE900134A1C8B1C20460DF143
:1041E0000F0104F060F836F8173043F0030326F8A7
:1041F000173015B9214805B0F0BD1F4E04F108076E
:1042000036F81700830734D595F800C06146890059
:1042100020F0200001F18041C00401F5C041C00C34
:1042200026F817000023C1F810356A78002AE1D07B
:10423000D1F81035AD7823F4991323F4F853C1F86D
:104240001035D1F810E5230203F47C53120443EA3D
:104250000E0302F440322D05134305F4801540EAA5
:104260004C302B4340F0200026F81700C1F81035E1
:10427000C0E70348BFE700BF000100200000AD0B0E
:104280000400AD0B014BC3E902017047000100209F
:1042900038B504460D4659B90B490C480C4A40F252
:1042A000352303F02AFE0A4840F2352103F04EFD83
:1042B0000834084B33F814309A0643BF5B0B2B705D
:1042C0000548064838BD00BF619200000E8B000013
:1042D000E9910000000100200000AD0B0400AD0BCF
:1042E00038B50E4C94F87850B5B96022294604F1DF
:1042F000100003F063FE0620FDF718FD084B094887
:104300001D601B68084B4FF00042C3F804230123D3
:1043100084F87830636738BD0448FCE7000100206A
:104320007C6100400000AD0B006000400500AD0B5B
:10433000034B93F87800003818BF0120704700BF86
:104340000001002001460148FFF7A6BD70010020D2
:1043500001460148FFF77CBD70010020F7B5314DE3
:1043600000F10807044635F8173013F01C0F0E460D
:104370000BD12D492D482E4A40F2DF3303F0BDFD0D
:104380002B4840F2DF3103F0E1FC35F817008306DB
:104390001FD510F002031CD1410B084603F07FFF2C
:1043A00000F1804000F5C040036003688B0003F11A
:1043B000804303F5C043D3F8102542F00102C3F84F
:1043C000102526B11B4A01238B40C2F8043303B0E9
:1043D000F0BD5EB918491548154A40F2EE3303F0B6
:1043E0008CFD134840F2EE3103F0B0FC35F8173085
:1043F000C3F38203042B10D0052B10D001A8019425
:10440000FFF7F2FD019BD0F81015D94001F0010132
:104410000231204603F092FFD9E70321F9E7022198
:10442000F7E700BF000100206B9200000E8B000038
:10443000E991000000600040809200000E4B00F106
:10444000080233F81230990613D59A0711D45B0B82
:1044500001229A409B00094903F1804303F5C043C0
:10446000C1F80823D3F8102522F00302C3F8102561
:104470007047002103F062BF00010020006000408F
:104480000E4B00F1080213B513F81230DB07044697
:1044900011D5FFF7D3FF2046FFF78CFD01A801944B
:1044A000FFF7A2FD019B03F5E073022240F82320F1
:1044B000034802B010BD0348FBE700BF0001002025
:1044C0000000AD0B0400AD0B2DE9F04F654B6648C5
:1044D0006649002589B001222C461E6836B1D0F805
:1044E000046316421EBF1C601E68154304338B42D2
:1044F0004FEA4202F1D15E4F3B687BB34FF0A043DD
:104500005C4ED3F820250692C3F82025D6F8203536
:104510000793C6F8203501960DF118094FF00008F1
:104520004FF0010BD9F80030F3B908F12008B8F1C9
:10453000400F09F10409F5D13B603B6801994FF048
:10454000A043D3F820250692C3F82025019BD3F879
:1045500020350793C1F820351343DDD10124002D08
:1045600068D109B0BDE8F08F93FAA3F3B3FA83F3EF
:1045700008EB030606F108023F4B059633F81220BC
:10458000C2F38203F40802939A4606AB06F00700D2
:104590000BFA00FC185D20EA0C001855910805A8DC
:1045A0000391FFF721FD059C039904F5E0744B0787
:1045B00050F82440C4F3014423D551463046FFF758
:1045C0009BFC05A80596FFF70FFD059A02F5E07222
:1045D000E4B250F82220C2F30142944207D10021F4
:1045E000304603F0ABFE2146304603F0A7FE05A897
:1045F0000596FFF7F9FC059B0BFA03F3C0F820358D
:1046000090E7022C0CBF03210221304603F096FEF6
:10461000029B032B04D0022C07D1BAF1010FE6D183
:1046200051463046FFF768FCE1E7032CDFD1BAF1D1
:10463000020FF4E795FAA5F3B3FA83F304FA03F251
:104640009B0003F1804303F5C04325EA0205D3F83C
:104650001005D3F81015C0F30520C1F30141FFF791
:104660004BFC7CE70061004000600040206100409E
:104670007C61004000030050000100200146014819
:10468000FFF7E6BB7C010020034B1868A0F108038C
:1046900058425841704700BF30010010064B1B685C
:1046A000082B06D1054B1B68052B02D8044AD05CA9
:1046B00070470020704700BF300100103401001027
:1046C00091920000024AD2F80034002BFBD07047D0
:1046D00000E0014010B5FFF7D7FF40B14FF0804335
:1046E0000022C3F80C21C3F81021C3F83825FFF7C6
:1046F000CBFF002846D04FF080525B4BD2F8041419
:10470000C3F82015D2F80814C3F82415D2F80C14F5
:10471000C3F82815D2F81014C3F82C15D2F81414C5
:10472000C3F83015D2F81814C3F83415D2F81C1495
:10473000C3F84015D2F82014C3F84415D2F8241455
:10474000C3F84815D2F82814C3F84C15D2F82C1425
:10475000C3F85015D2F83014C3F85415D2F83414F5
:10476000C3F86015D2F83814C3F86415D2F83C14B5
:10477000C3F86815D2F84014C3F86C15D2F8442475
:10478000C3F87025FFF78AFF10B1384B384A1A601A
:10479000FFF784FF18B1374BFB22C3F81825FFF74A
:1047A0007DFF48B13449354B0A681B6822F00F027F
:1047B00003F00F0313430B60FFF770FF18B1304B8A
:1047C0004FF400721A60FFF75FFF48B14FF080436B
:1047D000D3F80024D20744BF6FF00102C3F80024CD
:1047E000284B1B68082B0ED1274B1B68052B02D8C2
:1047F000264AD35C3BB14FF01023D3F808224FF088
:104800008043C3F858254FF01023D3F80022002A24
:1048100003DBD3F80432002B22DA1D490123C1F84F
:104820000435FFF74FFF4FF010201224C0F800426C
:10483000FFF748FFC0F80442FFF744FF0023C1F828
:104840000435FFF73FFFBFF34F8F1249124BCA6881
:1048500002F4E0621343CB60BFF34F8F00BFFDE76C
:104860000E4B0F4A1A6010BD00C000408C5600402D
:104870004881030000F00040E40E004058020010A0
:104880004096024030010010340100108B9200006D
:1048900000E0014000ED00E00400FA058001002086
:1048A0000090D00310B5144C144A1549032323611A
:1048B0006361144BA261E3614FF4806323620023C0
:1048C000A3626362E36222660F4A6266E01D102201
:1048D000A2662367E366636703F03FFBBFF35F8F66
:1048E0000A49204603F039FBBFF35F8F2023A371F1
:1048F000BFF35F8F10BD00BFD00B00209792000068
:10490000A0920000FF0C0020EF0C0020A4920000F9
:104910000E4B70B553F82040013053F82060A6428A
:1049200000D870BDD4E900352846984765B1EB68DA
:1049300030B10028B8BF4042FF28A8BFFF20187040
:104940005A7842F001025A700834E8E7BC88000047
:1049500070B5054610B90024204670BD0378002BC1
:10496000F9D00F4A0F4C1646944208D10D4CB44270
:10497000F1D0204603F0F9FC50B91834F7E720468F
:1049800003F0F3FC10B12368AB42E5D01834EBE739
:104990002168284603F0FBFA0028EED1DCE700BFCF
:1049A000D085000040850000F8B504460E464FF063
:1049B0002003EFF3118783F31288BFF36F8F01F0A9
:1049C000B3FD31460546204603F046FC042C0CD1CD
:1049D0000A490B4A0B488F2303F08FFA0A4803F069
:1049E0008CFA07488F2103F0B1F987F31188BFF3E0
:1049F0006F8F2846BDE8F840FDF744BCCD9200001B
:104A0000AB9200000E8B0000EA920000114CA268ED
:104A100092F90E20002A08B509DA0F490F48104A0A
:104A2000272303F06AFA0E48272103F08FF94FF08D
:104A30002002EFF3118382F31288BFF36F8F02F02D
:104A400069FAA061FDF746F80028F0D1FDF7F8F803
:104A5000EDE700BF780C0020409300000E8B0000B3
:104A60001F93000030B5002387B00122CDE9042355
:104A70000F22CDE902320D4C0D4A01930D49182346
:104A800004EBC01403FB00234FF4B075009305FB47
:104A90000011094B4FF4A072204601F061FF637BC7
:104AA00023F00403637307B030BD00BFF803002098
:104AB000780C0020402300200D4A000008B50A4B66
:104AC000012202201A70FFF723FF02F053FF032098
:104AD000FFF71EFF01F0F6FFFBF758FF034A137BB9
:104AE00023F00103137308BDFF1000207804002099
:104AF0000248034A0021121A03F060BA580200204B
:104B0000BC12002080B5DFF8D880A6B088F30888F2
:104B10002D4D2E4E6B69DFF8CC9043F400730024CA
:104B20006B61E02385F82230EC772C766C76AC76DE
:104B300085F820406B6A43F4E0236B6285F82340DC
:104B4000FDF74AFBFDF776F84FF0FF33AB62EB62FF
:104B5000FDF772FCFDF7A8FB40F20113ADF824301D
:104B600006ABB360CDE9204403F0FEFB2046FFF71F
:104B7000CFFE0120164DFFF7CBFE01F03FFB154B9A
:104B80000593012314490094CDE903434FF4806257
:104B90004B46CDE901442846F56101F0E1FE6A7B10
:104BA00022F004026A730746284600F027FF2046D9
:104BB000FFF758FF094BF3604A46394628463475DB
:104BC000C6F80480FDF770F900ED00E0780C0020D5
:104BD0007804002068930000201F0020F8030020C4
:104BE000C02C0020BD4A00002DE9F041164D174CA5
:104BF000174EA846AC420CD9164917483C233246FA
:104C000003F07BF9154803F078F93C21304603F0B6
:104C10009DF8444502D30020BDE8F081D4E9042189
:104C200041EA020313F003030BD1E068A36183425E
:104C300001D12034DEE7A7690F600133A16111447F
:104C4000F5E76FF01500E7E70402002004020020FA
:104C50006D930000929300000E8B0000AF93000054
:104C60002DE9F74304460E469046994600F10805A3
:104C70004FF02003EFF3118783F31288BFF36F8F98
:104C8000284601F0AFFF68B9244A25492548812309
:104C900003F033F92448294603F02FF91F488121F6
:104CA00003F054F8284601F0BBFFA369EBB1336071
:104CB0001B68A361E3690133E3610024284601F026
:104CC0009FFF68B9154A19491648AC2303F015F936
:104CD0001748294603F011F91048AC2103F036F8C3
:104CE00087F31188BFF36F8F13E058EA090203D1ED
:104CF00033606FF00B04E1E72246CDE900893946C5
:104D0000284601F02DF8044618B90A4B9B685B69E8
:104D10003360204603B0BDE8F08300BF218C000063
:104D2000738C00000E8B0000888C0000478C000004
:104D30005E8C0000780C00202DE9F04104460E4600
:104D400000F108054FF02003EFF3118783F3128879
:104D5000BFF36F8F284601F045FF68B9224A234907
:104D60002348812303F0C9F82248294603F0C5F8F7
:104D70001D48812102F0EAFF284601F051FFD4F8D6
:104D80001880B8F1000F0FD1204601F0E7F958B1B3
:104D900032684261C0F87C8000F030FE3946284617
:104DA000BDE8F04100F08ABB3368A2691A6033683D
:104DB000A361E369013BE361284601F021FF68B983
:104DC000094A0D490A48AC2303F097F80B482946D5
:104DD00003F093F80448AC2102F0B8FF87F3118880
:104DE000BFF36F8FBDE8F081218C0000738C000051
:104DF0000E8B0000888C0000478C00005E8C000049
:104E00002DE9F341044616461F46EFF3058363B1CF
:104E10007049714A7148652303F06FF8704803F0D8
:104E20006CF86D48652102F091FF4FF02003EFF31D
:104E3000118883F31288BFF36F8F6A4801F0D2FEA6
:104E400068B9694A69496548812303F056F865499C
:104E5000674803F052F86448812102F077FF614807
:104E600001F0DEFEE368634AFBB1A0689168884206
:104E70003DD056EA07033CD15A4801F0C1FE68B95B
:104E8000594A5D495548AC2303F037F855495B480A
:104E900003F033F85448AC2102F058FF88F311882E
:104EA000BFF36F8F6FF00F001EE0916891F90E1045
:104EB0004C4821610133E3609368A36001F0A0FED8
:104EC00068B9494A4C494548AC2303F016F84549AE
:104ED0004A4803F012F84448AC2102F037FF88F347
:104EE0001188BFF36F8F002002B0BDE8F081216907
:104EF000DEE791F90E1090F90E309942A8BF1946DD
:104F00006FF07E029142B8BF11468B4244DD00F043
:104F100057FF0546CDE9006732482246414600F07A
:104F20001FFF0028E0D04FF02003EFF3118683F33A
:104F30001288BFF36F8F2B4801F054FE68B92A4ADC
:104F40002A492648812302F0D8FF2649284802F042
:104F5000D4FF2548812102F0F9FE224801F060FECD
:104F6000236821699C420AD04BB193F90E309942D3
:104F7000A8BF19466FF07E039942B8BF1946A068D2
:104F800090F90E30994209D16DB11648314600F0C2
:104F900095FA6FF00A00A7E70025BBE700F010FFC5
:104FA0000028F2D1F0E70F4801F02AFE68B90E4A56
:104FB00011490A48AC2302F0A0FF0A490F4802F049
:104FC0009CFF0948AC2102F0C1FE86F31188BFF3B3
:104FD0006F8FDEE7F0930000CE9300000E8B000091
:104FE00002940000A00C0020218C0000738C0000B3
:104FF000888C0000780C0020478C00005E8C00003C
:1050000038B50446EFF3058363B15249524A534819
:10501000C72302F072FF524802F06FFF4E48C721CB
:1050200002F094FEA368002B00F08D804D4DAA681D
:10503000934240F08B80E3684BB94B494748464A5E
:10504000DF2302F05AFF4448DF2102F07FFEEFF336
:10505000058363B13F49454A4048FD2302F04DFFB7
:10506000434802F04AFF4148FD2102F06FFEAB6861
:10507000DB7B012B0CD13F493C4A3848FE2302F030
:105080003CFF3B4802F039FF3848FE2102F05EFE4B
:10509000AA68D37B013BD373E368012B05D9013B9D
:1050A000E36000F093FF002038BD4FF02003EFF3E2
:1050B000118583F31288BFF36F8F2F4801F092FDA3
:1050C00068B92E4A2E492548812302F016FF2A4945
:1050D0002C4802F012FF2948812102F037FE2648B1
:1050E00001F09EFDA068216990F90E30994201D02F
:1050F00000F066FE204601F031F8A06058B190F94A
:105100000E2022610022C26700F078FC1A4829466E
:1051100000F0D4F9C5E7E060174801F071FD68B907
:10512000164A19490D48AC2302F0E7FE1249174808
:1051300002F0E3FE1148AC2102F008FE85F311886D
:10514000BFF36F8FADE76FF01500ADE74FF0FF30A5
:10515000AAE700BFF0930000CE9300000E8B000082
:1051600002940000780C0020279400003E94000078
:10517000699400006C940000A00C0020218C0000B9
:10518000738C0000888C0000478C00005E8C00004F
:105190002DE9F843846805460E46D4B16378012BA7
:1051A0004BD1B4F160070ED1304A31493148F9236F
:1051B00002F0A3FE304802F0A0FE2C48F92102F0D4
:1051C000C5FD7B7BFFDE14F8533C13F002030AD1CC
:1051D0002370EB68C3F345310E43002066F352336E
:1051E000A860EB600DE054E90E234FF0FF316FF043
:1051F00001008B4208BF824205D1002323706FF06B
:105200000A00BDE8F883384600F054FA082E0CBFB7
:105210006FF003030023E36114F8533CDB0604D171
:1052200054F8488CB8F1000F01D00023D0E738467D
:1052300000F0E4FB84F80080CBE7022BF5D1237863
:10524000002BC6D054F8047C77B1A4F1140904F102
:1052500014004FF0000801F00FFEC4F82C804946FE
:10526000384602F097FAE5E72770B2E79D94000010
:10527000989500000E8B0000AE95000070B50446B6
:105280000D464FF02003EFF3118683F31288BFF32E
:105290006F8F214801F0A6FC68B9204A20492148B7
:1052A000812302F02AFE1C491F4802F026FE1B48FB
:1052B000812102F04BFD184801F0B2FC2068E56046
:1052C00001218442A16017D1134801F099FC68B90B
:1052D000124A16491348AC2302F00FFE0E49144837
:1052E00002F00BFE0D48AC2102F030FD86F3118870
:1052F000BFF36F8F00240DE0D0E9003213605A60D5
:105300000023C0E90033FFF743FF3146044602485B
:1053100000F0D4F8204670BDA40C0020218C0000C1
:10532000738C00000E8B0000888C0000478C0000FE
:105330005E8C000010B5084C23685BB1FEF710FCD2
:1053400003462068054A0344BDE81040136100216C
:1053500001F028BE10BD00BFB40C0020780C002066
:10536000F8B504460D464FF02003EFF3118683F3A2
:105370001288BFF36F8F234801F034FC68B9224ACA
:1053800022492348812302F0B8FD1E49214802F03A
:10539000B4FD1D48812102F0D9FC1A4801F040FCFF
:1053A0001D4B00224FF4004740F2E73000211A6104
:1053B000E7FB040100234FF47A72FBF783F8002C1B
:1053C000164B1BDC1860164B1D60FFF7B3FF0D4832
:1053D00001F016FC68B90C4A12490D48AC2302F0E2
:1053E0008CFD0849104802F088FD0748AC2102F006
:1053F000ADFC86F31188BFF36F8FF8BD0228B8BFEC
:105400000220DFE7AC0C0020218C0000738C000030
:105410000E8B0000888C0000780C0020B40C00205B
:10542000B00C0020478C00005E8C000038B50446AC
:105430004FF02003EFF3118583F31288BFF36F8FD2
:10544000174801F0CFFB68B9164A1749174881235E
:1054500002F053FD1249164802F04FFD1148812118
:1054600002F074FC0E4801F0DBFB204600F000F96E
:105470000B4801F0C5FB68B90A4A0E490B48AC233A
:1054800002F03BFD06490C4802F037FD0548AC210F
:1054900002F05CFC85F31188BFF36F8F38BD00BF4D
:1054A000AC0C0020218C0000738C00000E8B0000DF
:1054B000888C0000478C00005E8C000038B50446E4
:1054C0000D46E9B9EFF30583D3B9194BDA699B6847
:1054D0009A4215D001F094FB68B9164A164917484C
:1054E000C32302F00AFD1648214602F006FD1148CA
:1054F000C32102F02BFCBDE838400020FCF784BC3F
:10550000204601F07DFB68B90A4A0B490B48AC23E1
:1055100002F0F3FC0A48214602F0EFFC0548AC21FA
:1055200002F014FC85F31188BFF36F8F38BD00BF04
:10553000780C0020218C0000478C00000E8B0000AE
:105540005E8C000038B54FF02003EFF3118583F334
:105550001288BFF36F8F294801F044FB68B9284ACD
:1055600028492948812302F0C8FC2449274802F031
:10557000C4FC2348812102F0E9FB204801F050FBE4
:10558000EFF3058363B12249224A1F48FD2302F04D
:10559000B4FC214802F0B1FC1E48FD2102F0D6FB0C
:1055A0001E4CA268D27B012A0CD11D49194A16480B
:1055B000FE2302F0A2FC184802F09FFC1548FE21D1
:1055C00002F0C4FBA268D37B013BD3730B4801F00C
:1055D00017FB68B90A4A13490B48AC2302F08DFC4B
:1055E0000649114802F089FC0548AC2102F0AEFBE7
:1055F00085F31188BFF36F8F38BD00BFAC0C00205E
:10560000218C0000738C00000E8B0000888C000041
:10561000F09300003E94000069940000780C002094
:105620006C940000478C00005E8C00000C4B99428B
:1056300010B50C460BD10B490B480C4A40F2E7332E
:1056400002F05BFC094840F2E73102F07FFBD4E94D
:10565000003213605A600023C4E9003310BD00BF5C
:10566000F8030020EF9500000E8B0000CD950000A0
:10567000836810B504465BB90B490C480C4A40F2EC
:10568000832302F03AFC0A4840F2832102F05EFBD9
:10569000A0682146FFF7CAFF637B23F00203637310
:1056A0000023A36010BD00BF109600000E8B000009
:1056B000CD95000038B504464FF02003EFF3118577
:1056C00083F31288BFF36F8F194801F08BFA68B922
:1056D000184A19491948812302F00FFC1449184847
:1056E00002F00BFC1348812102F030FB104801F05E
:1056F00097FA2046FFF7BCFF0D4801F081FA68B920
:105700000C4A10490D48AC2302F0F7FB08490E483B
:1057100002F0F3FB0748AC2102F018FB85F3118877
:10572000BFF36F8F04F11800BDE8384001F0A4BB4F
:10573000AC0C0020218C0000738C00000E8B00004C
:10574000888C0000478C00005E8C000038B5024653
:105750001448154D02F061FE044600B9EC68CAB960
:10576000AB6863B91149124A1248892302F0C5FB9C
:10577000114802F0C2FB0E48892102F0E7FAAB683B
:105780005A7BD20606D1A26922B9DA897F2A01D9C9
:10579000EB6138BDAB68A34201D0FFF7CBFDEC61F4
:1057A000F7E700BF980C0020780C00202796000037
:1057B000CD9500000E8B00006994000070B590F943
:1057C0000D20437B002A044606DA03F07F0343736F
:1057D00001461F48FFF72AFF637B63F07F03637373
:1057E0001C4B9C4209D11C491C481D4ABA2302F09B
:1057F00084FB1B48BA2102F0A9FA1A4A1146556ADD
:1058000051F8203F8B4208BF0023002B38BF0023F4
:10581000CBB194F90E6093F90E0086420FD0801B35
:1058200000280CDD5968C4E900310C605C609068A8
:10583000031B5842BDE870405841FFF787BFAB4299
:1058400001D01B68E4E7C4E900152C605462EEE760
:10585000980C0020F8030020EF9500000E8B00004C
:10586000CD950000780C002070B504464FF0200361
:10587000EFF3118583F31288BFF36F8F2A4801F08D
:10588000B1F968B9294A2A492A48812302F035FB2F
:105890002549294802F031FB2448812102F056FABB
:1058A000214801F0BDF9254B254A986811688842C6
:1058B000194618D1FFF73EFD1B4801F0A1F968B960
:1058C0001A4A20491B48AC2302F017FB16491E4810
:1058D00002F013FB1548AC2102F038FA85F3118869
:1058E000BFF36F8F70BD00261660184A1268BAB1F8
:1058F000C2897F2A14D8427BD20611D1144A90F96A
:105900000E60126896420BDB124A904208D01A6968
:10591000A24202DCFFF752FFCCE7121B1A61CBE771
:1059200000230B61C8E700BFAC0C0020218C0000F5
:10593000738C00000E8B0000888C0000780C002017
:10594000A80C0020478C00005E8C0000B40C0020E6
:10595000B00C0020F803002070B590F90D20437BB7
:10596000002A04463EDBDA063CD18569002D39D198
:1059700063F07F0343731C4B984209D11B491C48B9
:105980001C4ABA2302F0B9FA1A48BA2102F0DEF929
:1059900019490B4653F8200F984218BF0546002DB1
:1059A0001A462B464D6A38BF0023B3B194F90E60F6
:1059B00093F90E0086420CD0801B002809DD5A683E
:1059C000C4E9003214605C60BDE870400020FFF75D
:1059D000BDBEAB4201D01B68E7E7C4E900252C60DF
:1059E0004C62F1E770BD00BFF8030020EF950000A6
:1059F0000E8B0000CD950000780C002038B50446D1
:105A00004FF02003EFF3118583F31288BFF36F8FFC
:105A1000174801F0E7F868B9164A17491748812373
:105A200002F06BFA1249164802F067FA1148812118
:105A300002F08CF90E4801F0F3F82046FFF78CFFD6
:105A40000B4801F0DDF868B90A4A0E490B48AC234F
:105A500002F053FA06490C4802F04FFA0548AC210F
:105A600002F074F985F31188BFF36F8F38BD00BF62
:105A7000AC0C0020218C0000738C00000E8B000009
:105A8000888C0000478C00005E8C000038B504460E
:105A90004FF02003EFF3118583F31288BFF36F8F6C
:105AA0001D4801F09FF868B91C4A1D491D48812313
:105AB00002F023FA18491C4802F01FFA1748812106
:105AC00002F044F9144801F0ABF8637B5A0716D48E
:105AD000114801F095F868B9104A14491148AC23EF
